:100000000C9462000C948A000C948A000C948A0070
:100010000C948A000C948A000C948A000C948A0038
:100020000C948A000C948A000C948A000C948A0028
:100030000C948A000C948A000C948A000C948A0018
:100040000C941B030C948A000C948B030C94650392
:100050000C948A000C948A000C948A000C948A00F8
:100060000C948A000C948A000000000024002700F1
:100070002A0000000000250028002B0000000000DE
:1000800023002600290004040404040404040202DA
:100090000202020203030303030301020408102007
:1000A0004080010204081020010204081020000012
:1000B0000008000201000003040700000000000027
:1000C0000000360611241FBECFEFD8E0DEBFCDBF43
:1000D00011E0A0E0B1E0E2E5FDE002C005900D9284
:1000E000A039B107D9F722E0A0E9B1E001C01D9223
:1000F000A334B207E1F710E0C2E6D0E004C02197D4
:10010000FE010E94A106C136D107C9F70E94BD03B6
:100110000C94A7060C940000833081F028F4813001
:1001200099F08230A9F008958730A9F08830C9F09D
:100130008430B1F4809180008F7D03C08091800075
:100140008F7780938000089584B58F7784BD08955C
:1001500084B58F7DFBCF8091B0008F778093B00006
:1001600008958091B0008F7DF9CFCF93DF93282F32
:1001700030E0F901E255FF4F8491F901E656FF4F57
:10018000D491F901EA57FF4FC491CC23A1F081111A
:100190000E948C00EC2FF0E0EE0FFF1FE458FF4FA1
:1001A000A591B491EC91ED2381E090E009F480E019
:1001B000DF91CF91089580E090E0FACF1F93CF9325
:1001C000DF93282F30E0F901E255FF4F8491F901C8
:1001D000E656FF4FD491F901EA57FF4FC491CC2363
:1001E000A9F0162F81110E948C00EC2FF0E0EE0F89
:1001F000FF1FEE58FF4FA591B4918FB7F894EC9183
:10020000111108C0D095DE23DC938FBFDF91CF9111
:100210001F910895DE2BF8CFCF93DF9390E0FC0180
:10022000E656FF4F24918A579F4FFC018491882303
:10023000D1F090E0880F991FFC01E859FF4FA5917C
:10024000B491FC01EE58FF4FC591D491623071F426
:100250009FB7F8943C91822F809583238C93E881FB
:100260002E2B28839FBFDF91CF9108958FB7F894ED
:10027000EC912E2B2C938FBFF6CF3FB7F894809143
:100280003F0290914002A0914102B091420226B5F6
:10029000A89B05C02F3F19F00196A11DB11D3FBFBE
:1002A000BA2FA92F982F8827BC01CD01620F711D8D
:1002B000811D911D42E0660F771F881F991F4A9587
:1002C000D1F708958F929F92AF92BF92CF92DF9213
:1002D000EF92FF926B017C010E943D014B015C019A
:1002E000C114D104E104F104B9F00E943D01681980
:1002F00079098A099B09683E73408105910580F35D
:1003000021E0C21AD108E108F10888EE880E83E0E6
:10031000981EA11CB11CE4CFFF90EF90DF90CF900E
:10032000BF90AF909F908F900895AF92BF92CF9261
:10033000DF92EF92FF920F931F93CF93DF936C01A5
:100340007B018B01040F151FEB015E01AE18BF0886
:10035000C017D10759F06991D601ED91FC91019038
:10036000F081E02DC6010995892B79F7C501DF9150
:10037000CF911F910F91FF90EF90DF90CF90BF90A2
:10038000AF900895FC01538D448D252F30E0842FCC
:1003900090E0821B930B541710F0CF9608950197AD
:1003A0000895FC01918D828D981761F0A28DAE0F9A
:1003B000BF2FB11D5D968C91928D9F5F9F73928F21
:1003C00090E008958FEF9FEF0895FC01918D828D4D
:1003D000981731F0828DE80FF11D858D90E008951A
:1003E0008FEF9FEF0895FC01918D228D892F90E072
:1003F000805C9F4F821B91098F73992708958AE92A
:1004000091E00E94F30121E0892B09F420E0822F82
:10041000089580E090E0892B29F00E94FF0181116E
:100420000C9400000895FC01A48DA80FB92FB11DF4
:10043000A35ABF4F2C91848D90E001968F7399271A
:10044000848FA689B7892C93A089B1898C918370F8
:1004500080648C93938D848D981306C00288F389F1
:10046000E02D80818F7D80830895EF92FF920F931E
:100470001F93CF93DF93EC0181E0888F9B8D8C8D50
:1004800098131AC0E889F989808185FF15C09FB744
:10049000F894EE89FF896083E889F9898081837007
:1004A000806480839FBF81E090E0DF91CF911F91B6
:1004B0000F91FF90EF900895F62E0B8D10E00F5FD7
:1004C0001F4F0F731127E02E8C8D8E110CC00FB6AD
:1004D00007FCFACFE889F989808185FFF5CFCE0145
:1004E0000E941302F1CFEB8DEC0FFD2FF11DE35AAB
:1004F000FF4FF0829FB7F8940B8FEA89FB898081C8
:100500008062CFCFCF93DF93EC01888D8823B9F041
:10051000AA89BB89E889F9898C9185FD03C080810E
:1005200086FD0DC00FB607FCF7CF8C9185FFF2CF8B
:10053000808185FFEDCFCE010E941302E9CFDF91CC
:10054000CF910895CF93DF93EC0161E08BE00E949F
:10055000DE00BE01DD0F880B990B0E94620160E096
:100560008BE0DF91CF910C94DE00AF92BF92CF92DF
:10057000DF92EF92FF920F931F93CF93DF936AE086
:1005800070E00E9479066C0106E611E087E0869F24
:100590007001879FF00C11245801D0E0C0E0FE01EB
:1005A000EE0DFF1DE050FF4F6081F50181915F016D
:1005B0000E94DE002196C730D10589F760E08EE009
:1005C0000E94DE0065E070E080E090E00E94620141
:1005D00061E08EE00E94DE0087E08C9D70018D9DC1
:1005E000F00C1124D0E0C0E0FE01EE0DFF1DE05044
:1005F000FF4F6081F80181918F010E94DE002196FA
:10060000C730D10589F760E08FE00E94DE0065E029
:1006100070E080E090E00E94620161E08FE0DF9195
:10062000CF911F910F91FF90EF90DF90CF90BF90EF
:10063000AF900C94DE001F920F920FB60F92112410
:100640002F933F938F939F93AF93BF9380913B02E0
:1006500090913C02A0913D02B0913E0230913A024D
:1006600023E0230F2D3758F50196A11DB11D2093CE
:100670003A0280933B0290933C02A0933D02B093D8
:100680003E0280913F0290914002A0914102B091C0
:1006900042020196A11DB11D80933F02909340023A
:1006A000A0934102B0934202BF91AF919F918F916D
:1006B0003F912F910F900FBE0F901F90189526E835
:1006C000230F0296A11DB11DD2CF1F920F920FB61C
:1006D0000F9211242F933F934F935F936F937F93C8
:1006E0008F939F93AF93BF93EF93FF938AE991E02A
:1006F0000E941302FF91EF91BF91AF919F918F9153
:100700007F916F915F914F913F912F910F900FBE0D
:100710000F901F9018951F920F920FB60F921124F1
:100720002F938F939F93EF93FF93E091AA01F09102
:10073000AB018081E091B001F091B10182FD1BC05D
:1007400090818091B3018F5F8F732091B4018217E4
:1007500041F0E091B301F0E0E656FE4F958F8093B3
:10076000B301FF91EF919F918F912F910F900FBE49
:100770000F901F9018958081F4CF789484B5826093
:1007800084BD84B5816084BD85B5826085BD85B535
:10079000816085BD80916E00816080936E001092B3
:1007A000810080918100826080938100809181002E
:1007B00081608093810080918000816080938000BF
:1007C0008091B10084608093B1008091B00081601D
:1007D0008093B00080917A00846080937A00809149
:1007E0007A00826080937A0080917A0081608093A1
:1007F0007A0080917A00806880937A001092C1001C
:10080000E091AA01F091AB0182E08083E091A60122
:10081000F091A7011082E091A801F091A9018FEC5D
:1008200080831092B201E091AE01F091AF0186E0B9
:100830008083E091AC01F091AD0180818061808383
:10084000E091AC01F091AD01808188608083E091FE
:10085000AC01F091AD01808180688083E091AC01B2
:10086000F091AD0180818F7D8083C6E6D1E061E0AB
:1008700089910E940C0101E0CE36D007C1F761E0FA
:100880008EE00E940C0161E08FE00E940C0162E0AA
:1008900080E10E940C0162E081E10E940C0162E0B3
:1008A00082E10E940C0162E083E10E940C0161E0A0
:1008B0008AE00E940C0161E08BE00E940C0190E054
:1008C00080E00E94630690E09093930180939201F0
:1008D0008436910524F01092930110929201809138
:1008E00092019091930190939101809390010E94C5
:1008F000B50288E592E00E94A20245E7642E41E03D
:10090000742E5DE6A52E51E0B52E60E0462E60E027
:10091000562EC1E080E10E94B5007C0181E10E9479
:10092000B5006C0182E10E94B5008C0183E10E9458
:10093000B50021E0892B09F020E020933902012B3A
:1009400019F580913802882309F4CEC0109238023C
:1009500060E08AE00E94DE00C093370240E150E090
:100960006CE771E08AE991E00E94950142E050E075
:100970006DE871E08AE991E00E94950168EC70E011
:1009800080E090E00E946201D0913902809195014F
:10099000D11161C1882361F0C093380261E08AE01F
:1009A0000E94DE001092940188E592E00E94A2026B
:1009B000D093950180913702882309F4B5C008E5EA
:1009C00011E036E6832E31E0932EF80161918F011C
:1009D000F40181914F010E94DE00F1E00F351F0705
:1009E000A1F760E08EE00E94DE0065E070E080E04C
:1009F00090E00E94620161E08EE00E94DE002FE53F
:100A0000822E21E0922E06E611E0F40161914F0161
:100A1000F80181918F010E94DE00A016B106A9F7AE
:100A200060E08FE00E94DE0065E070E080E090E032
:100A30000E94620161E08FE00E94DE008091380236
:100A4000811121C0EF28F9F4609192017091930116
:100A500063367105C4F46F5F7F4F709393016093A9
:100A60009201709391016093900190E080E00E9468
:100A70006B0684E690E00E94A20268EC70E080E0E1
:100A800090E00E94620180913802811121C0CD283E
:100A9000F9F4609192017091930116161706C4F44F
:100AA0006150710970939301609392017093910169
:100AB0006093900190E080E00E946B0684E690E0F5
:100AC0000E94A20268EC70E080E090E00E94620167
:100AD0004114510409F41ECF0E94FF01882309F438
:100AE00019CF0E94000016CFC09338022FB7F89498
:100AF00080913B0290913C02A0913D02B0913E0258
:100B00002FBF8093960190939701A0939801B09383
:100B1000990161E08AE00E94DE001092370288E5C8
:100B200092E00E94A2022ACF80919401882391F141
:100B30000EE611E096E6892E91E0992EF80161917A
:100B40008F01F40181914F010E94DE006016710651
:100B5000A9F760E08EE00E94DE0065E070E080E0D2
:100B600090E00E94620161E08EE00E94DE0085E775
:100B7000882E81E0982E06E611E0F40161914F0184
:100B8000F80181918F010E94DE00F1E00D361F0710
:100B9000A1F746CF809138028823A1F12FB7F894AE
:100BA00080913B0290913C02A0913D02B0913E02A7
:100BB0002FBF4091960150919701609198017091DB
:100BC00099018C019D01041B150B260B370BB901F4
:100BD000A801483E534061057105A0F0809396013D
:100BE00090939701A0939801B093990180919201FD
:100BF000909193011816190664F40197909393014C
:100C00008093920180919201909193010E94B5028C
:100C100015CF1092380260E08AE00E94DE0003E007
:100C200010E088E592E00E94A20264E670E080E0B5
:100C300090E00E9462010150110999F760919001C2
:100C400080919101609392018093930190E080E004
:100C50000E946B06D7CF8111ABCE1092380260E0B4
:100C60008AE00E94DE00C09394019ECEEAE9F1E0A2
:100C70001382128288EE93E0A0E0B0E08483958333
:100C8000A683B7838AE491E09183808385EC90E02A
:100C90009587848784EC90E09787868780EC90E046
:100CA000918B808B81EC90E0938B828B82EC90E037
:100CB000958B848B86EC90E0978B868B118E128EB1
:100CC000138E148E0895F999FECF92BD81BDF89AC6
:100CD000992780B50895262FF999FECF1FBA92BDA6
:100CE00081BD20BD0FB6F894FA9AF99A0FBE01960D
:100CF000089597FB072E16F4009407D077FD09D0CE
:100D00000E948D0607FC05D03EF4909581959F4F7B
:100D10000895709561957F4F0895AA1BBB1B51E103
:100D200007C0AA1FBB1FA617B70710F0A61BB70B5B
:100D3000881F991F5A95A9F780959095BC01CD0100
:100D40000895EE0FFF1F0590F491E02D0994F8949B
:020D5000FFCFD3
:100D52000101010101010000010100000000010187
:100D62000001010001010101010000010001010077
:100D72000001010100010100010101000101010165
:100D82000101010100000000010101010101010155
:100D92000101010001010000000035029501C201BC
:100DA2008202F301D101E50101010101010100010A
:100DB2000000000101010203040506070809000101
:100DC200010101000101010100010101436F756E82
:100DD20074646F776E20506175736564000D0A004C
:00000001FF
