:020000040000FA
:100000000C9462000C948A000C948A000C948A0070
:100010000C948A000C948A000C948A000C948A0038
:100020000C948A000C948A000C948A000C948A0028
:100030000C948A000C948A000C948A000C948A0018
:100040000C9464030C948A000C94D4030C94AE03B7
:100050000C948A000C948A000C948A000C948A00F8
:100060000C948A000C948A000000000024002700F1
:100070002A0000000000250028002B0000000000DE
:1000800023002600290004040404040404040202DA
:100090000202020203030303030301020408102007
:1000A0004080010204081020010204081020000012
:1000B0000008000201000003040700000000000027
:1000C0000000D90511241FBECFEFD8E0DEBFCDBFA1
:1000D00011E0A0E0B1E0E8E9FCE002C005900D927B
:1000E000A03AB107D9F722E0A0EAB1E001C01D9221
:1000F000A035B207E1F710E0C2E6D0E004C02197D6
:10010000FE010E944406C136D107C9F70E940604C9
:100110000C944A060C940000833081F028F481305E
:1001200099F08230A9F008958730A9F08830C9F09D
:100130008430B1F4809180008F7D03C08091800075
:100140008F7780938000089584B58F7784BD08955C
:1001500084B58F7DFBCF8091B0008F778093B00006
:1001600008958091B0008F7DF9CFCF93DF93282F32
:1001700030E0F901E255FF4F8491F901E656FF4F57
:10018000D491F901EA57FF4FC491CC23A1F081111A
:100190000E948C00EC2FF0E0EE0FFF1FE458FF4FA1
:1001A000A591B491EC91ED2381E090E009F480E019
:1001B000DF91CF91089580E090E0FACF1F93CF9325
:1001C000DF93282F30E0F901E255FF4F8491F901C8
:1001D000E656FF4FD491F901EA57FF4FC491CC2363
:1001E000A9F0162F81110E948C00EC2FF0E0EE0F89
:1001F000FF1FEE58FF4FA591B4918FB7F894EC9183
:10020000111108C0D095DE23DC938FBFDF91CF9111
:100210001F910895DE2BF8CFCF93DF9390E0FC0180
:10022000E656FF4F24918A579F4FFC018491882303
:10023000D1F090E0880F991FFC01E859FF4FA5917C
:10024000B491FC01EE58FF4FC591D491623071F426
:100250009FB7F8943C91822F809583238C93E881FB
:100260002E2B28839FBFDF91CF9108958FB7F894ED
:10027000EC912E2B2C938FBFF6CF3FB7F894809143
:10028000AF019091B001A091B101B091B20126B53A
:10029000A89B05C02F3F19F00196A11DB11D3FBFBE
:1002A000BA2FA92F982F8827BC01CD01620F711D8D
:1002B000811D911D42E0660F771F881F991F4A9587
:1002C000D1F708958F929F92AF92BF92CF92DF9213
:1002D000EF92FF926B017C010E943D014B015C019A
:1002E000C114D104E104F104B9F00E943D01681980
:1002F00079098A099B09683E73408105910580F35D
:1003000021E0C21AD108E108F10888EE880E83E0E6
:10031000981EA11CB11CE4CFFF90EF90DF90CF900E
:10032000BF90AF909F908F900895AF92BF92CF9261
:10033000DF92EF92FF920F931F93CF93DF936C01A5
:100340007B018B01040F151FEB015E01AE18BF0886
:10035000C017D10759F06991D601ED91FC91019038
:10036000F081E02DC6010995892B79F7C501DF9150
:10037000CF911F910F91FF90EF90DF90CF90BF90A2
:10038000AF900895FC01538D448D252F30E0842FCC
:1003900090E0821B930B541710F0CF9608950197AD
:1003A0000895FC01918D828D981761F0A28DAE0F9A
:1003B000BF2FB11D5D968C91928D9F5F9F73928F21
:1003C00090E008958FEF9FEF0895FC01918D828D4D
:1003D000981731F0828DE80FF11D858D90E008951A
:1003E0008FEF9FEF0895FC01918D228D892F90E072
:1003F000805C9F4F821B91098F739927089583EB2F
:1004000091E00E94F30121E0892B09F420E0822F82
:10041000089580E090E0892B29F00E94FF0181116E
:100420000C9400000895FC01A48DA80FB92FB11DF4
:10043000A35ABF4F2C91848D90E001968F7399271A
:10044000848FA689B7892C93A089B1898C918370F8
:1004500080648C93938D848D981306C00288F389F1
:10046000E02D80818F7D80830895EF92FF920F931E
:100470001F93CF93DF93EC0181E0888F9B8D8C8D50
:1004800098131AC0E889F989808185FF15C09FB744
:10049000F894EE89FF896083E889F9898081837007
:1004A000806480839FBF81E090E0DF91CF911F91B6
:1004B0000F91FF90EF900895F62E0B8D10E00F5FD7
:1004C0001F4F0F731127E02E8C8D8E110CC00FB6AD
:1004D00007FCFACFE889F989808185FFF5CFCE0145
:1004E0000E941302F1CFEB8DEC0FFD2FF11DE35AAB
:1004F000FF4FF0829FB7F8940B8FEA89FB898081C8
:100500008062CFCFCF93DF93EC01888D8823B9F041
:10051000AA89BB89E889F9898C9185FD03C080810E
:1005200086FD0DC00FB607FCF7CF8C9185FFF2CF8B
:10053000808185FFEDCFCE010E941302E9CFDF91CC
:10054000CF910895CF92DF92EF92FF921F93CF93B6
:10055000DF93EB018A599E4FFC01108160E0812FEF
:100560000E94DE0088E6E82E81E0F82E87E08C9F6E
:1005700060018D9FD00C1124D0E0C0E0FE01EC0D95
:10058000FD1DEA5BFE4F6081F70181917F010E94B2
:10059000DE002196C730D10589F765E070E080E084
:1005A00090E00E94620161E0812FDF91CF911F9165
:1005B000FF90EF90DF90CF900C94DE00CF92DF920F
:1005C000EF92FF921F93CF93DF93EB018A599E4FD7
:1005D000FC01108160E0812F0E94DE0088E6E82E99
:1005E00081E0F82E87E08C9F60018D9FD00C112454
:1005F000D0E0C0E0FE01EC0DFD1DE050FF4F60813A
:10060000F70181917F010E94DE002196C730D1055C
:1006100089F765E070E080E090E00E94620161E0AF
:10062000812FDF91CF911F91FF90EF90DF90CF90BE
:100630000C94DE00CF93DF936AE070E00E941C060A
:10064000EC0190E080E00E94DE02BE0181E090E0DB
:10065000DF91CF910C94DE02CF93DF93EC0161E048
:100660008BE00E94DE00BE01DD0F880B990B0E941B
:10067000620160E08BE0DF91CF910C94DE00CF93BC
:10068000DF93FC0101900020E9F73197AF01481B8F
:10069000590BBC0183EB91E00E949501EC0142E013
:1006A00050E060E771E083EB91E00E9495018C0FD0
:1006B0009D1FDF91CF91089560E08AE00E94DE00E7
:1006C00083E791E00C943F031F920F920FB60F92B5
:1006D00011242F933F938F939F93AF93BF93809158
:1006E000AB019091AC01A091AD01B091AE01309100
:1006F000AA0123E0230F2D3758F50196A11DB11D46
:100700002093AA018093AB019093AC01A093AD011B
:10071000B093AE018091AF019091B001A091B10171
:10072000B091B2010196A11DB11D8093AF019093CC
:10073000B001A093B101B093B201BF91AF919F916D
:100740008F913F912F910F900FBE0F901F90189592
:1007500026E8230F0296A11DB11DD2CF1F920F9242
:100760000FB60F9211242F933F934F935F936F9384
:100770007F938F939F93AF93BF93EF93FF9383EBFD
:1007800091E00E941302FF91EF91BF91AF919F9171
:100790008F917F916F915F914F913F912F910F902A
:1007A0000FBE0F901F9018951F920F920FB60F92C9
:1007B00011242F938F939F93EF93FF93E091C301A5
:1007C000F091C4018081E091C901F091CA0182FDDC
:1007D0001BC090818091CC018F5F8F732091CD01E0
:1007E000821741F0E091CC01F0E0ED54FE4F958F7F
:1007F0008093CC01FF91EF919F918F912F910F905A
:100800000FBE0F901F9018958081F4CF789484B517
:10081000826084BD84B5816084BD85B5826085BDFC
:1008200085B5816085BD80916E00816080936E008A
:10083000109281008091810082608093810080917C
:10084000810081608093810080918000816080932D
:1008500080008091B10084608093B1008091B000ED
:1008600081608093B00080917A00846080937A00E8
:1008700080917A00826080937A0080917A00816012
:1008800080937A0080917A00806880937A00109239
:10089000C100E091C301F091C40182E08083E09146
:1008A000BF01F091C0011082E091C101F091C2013D
:1008B0008FEC80831092CB01E091C701F091C801C9
:1008C00086E08083E091C501F091C601808180615E
:1008D0008083E091C501F091C601808188608083AA
:1008E000E091C501F091C601808180688083E0912C
:1008F000C501F091C60180818F7D8083C8E6D1E07B
:1009000061E089910E940C0121E0C037D207C1F754
:1009100061E08EE00E940C0161E08FE00E940C011A
:1009200062E080E10E940C0162E081E10E940C0122
:1009300062E082E10E940C0162E083E10E940C010E
:1009400061E08AE00E940C0161E08BE00E940C01F2
:1009500090E080E00E94060690E0843691050CF05D
:100960009EC09093A3018093A2018091A2019091D7
:10097000A3019093A1018093A0010E941A0388E52E
:1009800092E00E942C03C0E0D0E0FF24F39480E1C9
:100990000E94B5006C0181E10E94B5008C0182E1EA
:1009A0000E94B500892BA9F48091A901882309F43C
:1009B0007BC01092A9010E945C03F092A80181E81B
:1009C00091E00E943F0368EC70E080E090E00E94BC
:1009D00062018091A801882309F48AC070E060E078
:1009E00090E080E00E94A20261E070E081E090E08F
:1009F0000E94A2028091A901811121C0CD28F9F4A1
:100A00006091A2017091A30163367105C4F46F5F18
:100A10007F4F7093A3016093A2017093A101609333
:100A2000A00190E080E00E940E0684E690E00E9423
:100A30002C0368EC70E080E090E00E9462018091FD
:100A4000A901811121C0012BF9F46091A2017091DB
:100A5000A30116161706C4F4615071097093A3011F
:100A60006093A2017093A1016093A00190E080E0E7
:100A70000E940E0684E690E00E942C0368EC70E071
:100A800080E090E00E946201209709F480CF0E94EC
:100A9000FF01882309F47BCF0E94000078CF1092D9
:100AA000A3011092A20161CFF092A9012FB7F8948F
:100AB0008091AB019091AC01A091AD01B091AE01DC
:100AC0002FBF8093A4019093A501A093A601B0939A
:100AD000A70161E08AE00E94DE0082E991E00E94C5
:100AE0003F031092A80188E592E00E942C036BCF8F
:100AF0008091A9018823A1F12FB7F8948091AB01CF
:100B00009091AC01A091AD01B091AE012FBF409189
:100B1000A4015091A5016091A6017091A7014C011B
:100B20005D01841A950AA60AB70AB501A401483ED8
:100B3000534061057105A0F08093A4019093A50135
:100B4000A093A601B093A7018091A2019091A30167
:100B50001816190664F401979093A3018093A201DB
:100B60008091A2019091A3010E941A0343CF109299
:100B7000A9010E945C0383E0A82EB12C88E592E0D5
:100B80000E942C0364E670E080E090E00E94620125
:100B900081E0A81AB10891F76091A0018091A101AC
:100BA0006093A2018093A30190E080E00E940E0672
:100BB000D7CFE3EBF1E01382128288EE93E0A0E05E
:100BC000B0E084839583A683B78388E591E0918321
:100BD000808385EC90E09587848784EC90E097870C
:100BE000868780EC90E0918B808B81EC90E0938BFA
:100BF000828B82EC90E0958B848B86EC90E0978BD7
:100C0000868B118E128E138E148E0895F999FECF55
:100C100092BD81BDF89A992780B50895262FF9993C
:100C2000FECF1FBA92BD81BD20BD0FB6F894FA9ACF
:100C3000F99A0FBE0196089597FB072E16F40094BB
:100C400007D077FD09D00E94300607FC05D03EF49E
:100C5000909581959F4F0895709561957F4F089568
:100C6000AA1BBB1B51E107C0AA1FBB1FA617B707D2
:100C700010F0A61BB70B881F991F5A95A9F78095EE
:100C80009095BC01CD010895EE0FFF1F0590F491E2
:100C9000E02D0994F894FFCF01010101010100004A
:100CA000010100000000010100010100010101013A
:100CB000010000010001010000010101000101002B
:100CC0000101010001010101010101010000000019
:100CD0000101010101010101010101000101010105
:100CE00001010101000100000101010100000000FB
:100CF00035029501C2018202F301D101E5010E0F17
:100D000002030405060708090D0A004D6F746F728F
:100D10002053746F7070656400436F756E74646FF8
:100D2000776E20506175736564004D6F746F72202B
:080D30005374617274656400E4
:107E0000112484B714BE81FFF0D085E080938100F7
:107E100082E08093C00088E18093C10086E0809377
:107E2000C20080E18093C4008EE0C9D0259A86E02C
:107E300020E33CEF91E0309385002093840096BBD3
:107E4000B09BFECF1D9AA8958150A9F7CC24DD24C4
:107E500088248394B5E0AB2EA1E19A2EF3E0BF2EE7
:107E6000A2D0813461F49FD0082FAFD0023811F036
:107E7000013811F484E001C083E08DD089C08234E0
:107E800011F484E103C0853419F485E0A6D080C0E4
:107E9000853579F488D0E82EFF2485D0082F10E0AE
:107EA000102F00270E291F29000F111F8ED06801E7
:107EB0006FC0863521F484E090D080E0DECF843638
:107EC00009F040C070D06FD0082F6DD080E0C81688
:107ED00080E7D80618F4F601B7BEE895C0E0D1E017
:107EE00062D089930C17E1F7F0E0CF16F0E7DF06D8
:107EF00018F0F601B7BEE89568D007B600FCFDCFD4
:107F0000A601A0E0B1E02C9130E011968C91119780
:107F100090E0982F8827822B932B1296FA010C0160
:107F200087BEE89511244E5F5F4FF1E0A038BF0790
:107F300051F7F601A7BEE89507B600FCFDCF97BE46
:107F4000E89526C08437B1F42ED02DD0F82E2BD052
:107F50003CD0F601EF2C8F010F5F1F4F84911BD097
:107F6000EA94F801C1F70894C11CD11CFA94CF0C13
:107F7000D11C0EC0853739F428D08EE10CD085E9AC
:107F80000AD08FE07ACF813511F488E018D01DD067
:107F900080E101D065CF982F8091C00085FFFCCF94
:107FA0009093C60008958091C00087FFFCCF809118
:107FB000C00084FD01C0A8958091C6000895E0E648
:107FC000F0E098E1908380830895EDDF803219F02E
:107FD00088E0F5DFFFCF84E1DECF1F93182FE3DFCA
:107FE0001150E9F7F2DF1F91089580E0E8DFEE27F6
:047FF000FF270994CA
:027FFE00040479
:00000001FF
