:020000040000FA
:100000000C9462000C948A000C948A000C948A0070
:100010000C948A000C948A000C948A000C948A0038
:100020000C948A000C948A000C948A000C948A0028
:100030000C948A000C948A000C948A000C948A0018
:100040000C943B030C948A000C94AB030C94850332
:100050000C948A000C948A000C948A000C948A00F8
:100060000C948A000C948A000000000024002700F1
:100070002A0000000000250028002B0000000000DE
:1000800023002600290004040404040404040202DA
:100090000202020203030303030301020408102007
:1000A0004080010204081020010204081020000012
:1000B0000008000201000003040700000000000027
:1000C0000000B80511241FBECFEFD8E0DEBFCDBFC2
:1000D00011E0A0E0B1E0E6E5FCE002C005900D9281
:1000E000A238B107D9F722E0A2E8B1E001C01D9221
:1000F000A133B207E1F710E0C2E6D0E004C02197D7
:10010000FE010E942306C136D107C9F70E94DD0314
:100110000C9429060C940000833081F028F481307F
:1001200099F08230A9F008958730A9F08830C9F09D
:100130008430B1F4809180008F7D03C08091800075
:100140008F7780938000089584B58F7784BD08955C
:1001500084B58F7DFBCF8091B0008F778093B00006
:1001600008958091B0008F7DF9CFCF93DF93282F32
:1001700030E0F901E255FF4F8491F901E656FF4F57
:10018000D491F901EA57FF4FC491CC23A1F081111A
:100190000E948C00EC2FF0E0EE0FFF1FE458FF4FA1
:1001A000A591B491EC91ED2381E090E009F480E019
:1001B000DF91CF91089580E090E0FACF1F93CF9325
:1001C000DF93282F30E0F901E255FF4F8491F901C8
:1001D000E656FF4FD491F901EA57FF4FC491CC2363
:1001E000A9F0162F81110E948C00EC2FF0E0EE0F89
:1001F000FF1FEE58FF4FA591B4918FB7F894EC9183
:10020000111108C0D095DE23DC938FBFDF91CF9111
:100210001F910895DE2BF8CFCF93DF9390E0FC0180
:10022000E656FF4F24918A579F4FFC018491882303
:10023000D1F090E0880F991FFC01E859FF4FA5917C
:10024000B491FC01EE58FF4FC591D491623071F426
:100250009FB7F8943C91822F809583238C93E881FB
:100260002E2B28839FBFDF91CF9108958FB7F894ED
:10027000EC912E2B2C938FBFF6CF3FB7F894809143
:10028000900190919101A0919201B091930126B5B6
:10029000A89B05C02F3F19F00196A11DB11D3FBFBE
:1002A000BA2FA92F982F8827BC01CD01620F711D8D
:1002B000811D911D42E0660F771F881F991F4A9587
:1002C000D1F708958F929F92AF92BF92CF92DF9213
:1002D000EF92FF926B017C010E943D014B015C019A
:1002E000C114D104E104F104B9F00E943D01681980
:1002F00079098A099B09683E73408105910580F35D
:1003000021E0C21AD108E108F10888EE880E83E0E6
:10031000981EA11CB11CE4CFFF90EF90DF90CF900E
:10032000BF90AF909F908F900895DF92EF92FF92D1
:100330000F931F93CF93DF93062FE82FF0E0EF5931
:10034000FE4FD08060E08D2D0E94DE0083E1E82E1C
:1003500081E0F82E87E0089F80011124D0E0C0E002
:10036000FE01E00FF11FE55EFE4F6081F701819114
:100370007F010E94DE002196C730D10589F761E038
:1003800089E00E94DE0065E070E080E090E00E947D
:10039000620161E08D2DDF91CF911F910F91FF9050
:1003A000EF90DF900C94DE00AF92BF92CF92DF927D
:1003B000EF92FF920F931F93CF93DF936C017B011A
:1003C0008B01040F151FEB015E01AE18BF08C017AB
:1003D000D10759F06991D601ED91FC910190F0811E
:1003E000E02DC6010995892B79F7C501DF91CF91E1
:1003F0001F910F91FF90EF90DF90CF90BF90AF9043
:100400000895FC01538D448D252F30E0842F90E01A
:10041000821B930B541710F0CF96089501970895FF
:10042000FC01918D828D981761F0A28DAE0FBF2FC8
:10043000B11D5D968C91928D9F5F9F73928F90E01E
:1004400008958FEF9FEF0895FC01918D828D98178D
:1004500031F0828DE80FF11D858D90E008958FEFCA
:100460009FEF0895FC01918D228D892F90E0805C93
:100470009F4F821B91098F739927089584E991E01A
:100480000E94320221E0892B09F420E0822F089596
:1004900080E090E0892B29F00E943E0281110C94AB
:1004A00000000895FC01A48DA80FB92FB11DA35A17
:1004B000BF4F2C91848D90E001968F739927848F84
:1004C000A689B7892C93A089B1898C9183708064A7
:1004D0008C93938D848D981306C00288F389E02D48
:1004E00080818F7D80830895EF92FF920F931F93F9
:1004F000CF93DF93EC0181E0888F9B8D8C8D9813D7
:100500001AC0E889F989808185FF15C09FB7F894E2
:10051000EE89FF896083E889F9898081837080642E
:1005200080839FBF81E090E0DF91CF911F910F9179
:10053000FF90EF900895F62E0B8D10E00F5F1F4F88
:100540000F731127E02E8C8D8E110CC00FB607FC97
:10055000FACFE889F989808185FFF5CFCE010E9425
:100560005202F1CFEB8DEC0FFD2FF11DE35AFF4F3F
:10057000F0829FB7F8940B8FEA89FB8980818062B3
:10058000CFCFCF93DF93EC01888D8823B9F0AA8970
:10059000BB89E889F9898C9185FD03C0808186FD3E
:1005A0000DC00FB607FCF7CF8C9185FFF2CF80818D
:1005B00085FFEDCFCE010E945202E9CFDF91CF91AE
:1005C00008950F931F93CF93DF93CAE0D0E0BE014D
:1005D0000E94FB058B01682F81E00E949501C801F4
:1005E000BE010E94FB05682F80E0DF91CF911F9133
:1005F0000F910C949501CF93DF93EC0161E08BE0B8
:100600000E94DE00BE01DD0F880B990B0E94620183
:1006100060E08BE0DF91CF910C94DE00CF93DF930D
:10062000FC0101900020E9F73197AF01481B590BFD
:10063000BC0184E991E00E94D401EC0142E050E069
:1006400063E671E084E991E00E94D4018C0F9D1F64
:10065000DF91CF91089560E08AE00E94DE0086E697
:1006600091E00C940E0361E08AE00E94DE0084E7D2
:1006700091E00C940E031F920F920FB60F9211246B
:100680002F933F938F939F93AF93BF9380918C0150
:1006900090918D01A0918E01B0918F0130918B01CD
:1006A00023E0230F2D3758F50196A11DB11D20938E
:1006B0008B0180938C0190938D01A0938E01B09358
:1006C0008F018091900190919101A0919201B09140
:1006D00093010196A11DB11D80939001909391010A
:1006E000A0939201B0939301BF91AF919F918F918D
:1006F0003F912F910F900FBE0F901F90189526E8F5
:10070000230F0296A11DB11DD2CF1F920F920FB6DB
:100710000F9211242F933F934F935F936F937F9387
:100720008F939F93AF93BF93EF93FF9384E991E0EF
:100730000E945202FF91EF91BF91AF919F918F91D3
:100740007F916F915F914F913F912F910F900FBECD
:100750000F901F9018951F920F920FB60F921124B1
:100760002F938F939F93EF93FF93E091A401F091C8
:10077000A5018081E091AA01F091AB0182FD1BC02F
:1007800090818091AD018F5F8F732091AE018217B0
:1007900041F0E091AD01F0E0EC56FE4F958F809373
:1007A000AD01FF91EF919F918F912F910F900FBE0F
:1007B0000F901F9018958081F4CF789484B5826053
:1007C00084BD84B5816084BD85B5826085BD85B5F5
:1007D000816085BD80916E00816080936E00109273
:1007E00081008091810082608093810080918100EE
:1007F000816080938100809180008160809380007F
:100800008091B10084608093B1008091B0008160DC
:100810008093B00080917A00846080937A00809108
:100820007A00826080937A0080917A008160809360
:100830007A0080917A00806880937A001092C100DB
:10084000E091A401F091A50182E08083E091A001F4
:10085000F091A1011082E091A201F091A3018FEC2F
:1008600080831092AC01E091A801F091A90186E08B
:100870008083E091A601F091A7018081806180834F
:10088000E091A601F091A701808188608083E091CA
:10089000A601F091A701808180688083E091A60184
:1008A000F091A70180818F7D8083C3E1D1E00BE1CE
:1008B00011E061E089910E940C010C171D07C9F736
:1008C00061E08EE00E940C0161E08FE00E940C016B
:1008D00062E080E10E940C0162E081E10E940C0173
:1008E00062E082E10E940C0162E083E10E940C015F
:1008F00061E08AE00E940C0161E08BE00E940C0143
:1009000090E080E00E94E50590E0843691050CF0CF
:1009100008C190938901809388018091880190910A
:10092000890190938701809386010E94E10288E506
:1009300092E00E94FB0200E010E0FF24F39483E1C8
:100940000E94B500EC01EE24E394892B09F4E12C1C
:1009500080E10E94B5005C0181E10E94B5006C015C
:1009600082E10E94B500892B69F580918A0181118D
:1009700023C0809188019091890190938701809391
:100980008601F0928A012FB7F89480918C019091A2
:100990008D01A0918E01B0918F012FBF80938201B4
:1009A00090938301A0938401B09385010E94330347
:1009B00088E592E00E94FB0268EC70E080E090E045
:1009C0000E94620180918A01209709F4C9C088239E
:1009D000C9F12FB7F89480918C0190918D01A0916D
:1009E0008E01B0918F012FBF409182015091830100
:1009F00060918401709185013C014D01641A750A72
:100A0000860A970AB401A301483E53406105710567
:100A1000A8F08093820190938301A0938401B09306
:100A200085018091880190918901181619060CF0B2
:100A30007DC00197909389018093880180918A01FC
:100A400081111DC0AB28D9F4609188017091890192
:100A500063367105A4F46F5F7F4F709389016093D3
:100A6000880190E080E00E94ED0584E690E00E941D
:100A7000FB0268EC70E080E090E00E9462018091EF
:100A80008A0181111DC0CD28D9F46091880170912F
:100A9000890116161706A4F4615071097093890133
:100AA0006093880190E080E00E94ED0584E690E08C
:100AB0000E94FB0268EC70E080E090E00E9462011E
:100AC00080918801909189010E94E102CD2BD9F09B
:100AD00080910001811117C0F0928A012FB7F8941C
:100AE00080918C0190918D01A0918E01B0918F0128
:100AF0002FBF8093820190938301A0938401B093D0
:100B000085010E943303E09200010115110509F4EB
:100B100016CF0E943E02882309F411CF0E940000E4
:100B20000ECF1092890110928801F7CE10928A019F
:100B30000E942B0383E0882E912C88E592E00E948E
:100B4000FB0264E670E080E090E00E94620181E0D8
:100B5000881A910891F780918601909187016ACF58
:100B6000882309F46FCF10928A010E942B0366CF6D
:100B7000E4E9F1E01382128288EE93E0A0E0B0E0B5
:100B800084839583A683B78385E091E091838083F6
:100B900085EC90E09587848784EC90E09787868742
:100BA00080EC90E0918B808B81EC90E0938B828B3A
:100BB00082EC90E0958B848B86EC90E0978B868B13
:100BC000118E128E138E148E0895F999FECF92BD58
:100BD00081BDF89A992780B50895262FF999FECFFF
:100BE0001FBA92BD81BD20BD0FB6F894FA9AF99A4A
:100BF0000FBE0196089597FB072E16F4009407D0B8
:100C000077FD09D00E940F0607FC05D03EF49095B1
:100C100081959F4F0895709561957F4F0895AA1B08
:100C2000BB1B51E107C0AA1FBB1FA617B70710F0D7
:100C3000A61BB70B881F991F5A95A9F78095909509
:100C4000BC01CD010895EE0FFF1F0590F491E02D3A
:100C50000994F894FFCF01000000007402D4010150
:100C600002C1023202100224020203040506070830
:100C70000901010101010100000101000000000162
:100C80000100010100010101010100000100010159
:100C90000000010101000101000101010001010149
:100CA0000101010101000000000101010101010138
:100CB000010101010001010E0F0D0A004D6F746F5B
:100CC000722053746F70706564004D6F746F722082
:080CD000537461727465640045
:107E0000112484B714BE81FFF0D085E080938100F7
:107E100082E08093C00088E18093C10086E0809377
:107E2000C20080E18093C4008EE0C9D0259A86E02C
:107E300020E33CEF91E0309385002093840096BBD3
:107E4000B09BFECF1D9AA8958150A9F7CC24DD24C4
:107E500088248394B5E0AB2EA1E19A2EF3E0BF2EE7
:107E6000A2D0813461F49FD0082FAFD0023811F036
:107E7000013811F484E001C083E08DD089C08234E0
:107E800011F484E103C0853419F485E0A6D080C0E4
:107E9000853579F488D0E82EFF2485D0082F10E0AE
:107EA000102F00270E291F29000F111F8ED06801E7
:107EB0006FC0863521F484E090D080E0DECF843638
:107EC00009F040C070D06FD0082F6DD080E0C81688
:107ED00080E7D80618F4F601B7BEE895C0E0D1E017
:107EE00062D089930C17E1F7F0E0CF16F0E7DF06D8
:107EF00018F0F601B7BEE89568D007B600FCFDCFD4
:107F0000A601A0E0B1E02C9130E011968C91119780
:107F100090E0982F8827822B932B1296FA010C0160
:107F200087BEE89511244E5F5F4FF1E0A038BF0790
:107F300051F7F601A7BEE89507B600FCFDCF97BE46
:107F4000E89526C08437B1F42ED02DD0F82E2BD052
:107F50003CD0F601EF2C8F010F5F1F4F84911BD097
:107F6000EA94F801C1F70894C11CD11CFA94CF0C13
:107F7000D11C0EC0853739F428D08EE10CD085E9AC
:107F80000AD08FE07ACF813511F488E018D01DD067
:107F900080E101D065CF982F8091C00085FFFCCF94
:107FA0009093C60008958091C00087FFFCCF809118
:107FB000C00084FD01C0A8958091C6000895E0E648
:107FC000F0E098E1908380830895EDDF803219F02E
:107FD00088E0F5DFFFCF84E1DECF1F93182FE3DFCA
:107FE0001150E9F7F2DF1F91089580E0E8DFEE27F6
:047FF000FF270994CA
:027FFE00040479
:00000001FF
